{
  "contractName": "AdvStorage",
  "abi": [
    {
      "constant": true,
      "inputs": [
        {
          "name": "",
          "type": "uint256"
        }
      ],
      "name": "ids",
      "outputs": [
        {
          "name": "",
          "type": "uint256"
        }
      ],
      "payable": false,
      "stateMutability": "view",
      "type": "function"
    },
    {
      "constant": false,
      "inputs": [
        {
          "name": "id",
          "type": "uint256"
        }
      ],
      "name": "add",
      "outputs": [],
      "payable": false,
      "stateMutability": "nonpayable",
      "type": "function"
    },
    {
      "constant": true,
      "inputs": [
        {
          "name": "position",
          "type": "uint256"
        }
      ],
      "name": "gets",
      "outputs": [
        {
          "name": "",
          "type": "uint256"
        }
      ],
      "payable": false,
      "stateMutability": "view",
      "type": "function"
    },
    {
      "constant": true,
      "inputs": [],
      "name": "getAll",
      "outputs": [
        {
          "name": "",
          "type": "uint256[]"
        }
      ],
      "payable": false,
      "stateMutability": "view",
      "type": "function"
    },
    {
      "constant": true,
      "inputs": [],
      "name": "length",
      "outputs": [
        {
          "name": "",
          "type": "uint256"
        }
      ],
      "payable": false,
      "stateMutability": "view",
      "type": "function"
    }
  ],
  "bytecode": "0x608060405234801561001057600080fd5b5061028b806100206000396000f3fe608060405234801561001057600080fd5b50600436106100575760003560e01c80631003e2d21461005c5780631f7b6d321461008a57806353ed5143146100a8578063d30f3f4814610107578063fac333ac14610149575b600080fd5b6100886004803603602081101561007257600080fd5b810190808035906020019092919050505061018b565b005b6100926101ba565b6040518082815260200191505060405180910390f35b6100b06101c6565b6040518080602001828103825283818151815260200191508051906020019060200280838360005b838110156100f35780820151818401526020810190506100d8565b505050509050019250505060405180910390f35b6101336004803603602081101561011d57600080fd5b810190808035906020019092919050505061021e565b6040518082815260200191505060405180910390f35b6101756004803603602081101561015f57600080fd5b810190808035906020019092919050505061023e565b6040518082815260200191505060405180910390f35b600081908060018154018082558091505090600182039060005260206000200160009091929091909150555050565b60008080549050905090565b6060600080548060200260200160405190810160405280929190818152602001828054801561021457602002820191906000526020600020905b815481526020019060010190808311610200575b5050505050905090565b600080828154811061022c57fe5b90600052602060002001549050919050565b6000818154811061024b57fe5b90600052602060002001600091509050548156fea165627a7a72305820fb754e9fd9148536f23883c21f77144e3c379825934831f56441cca0449cc0c90029",
  "source": "pragma solidity ^0.5.8;\n\ncontract AdvStorage{\n    uint[] public ids;\n    \n    function add(uint id) public {\n        ids.push(id);\n    }\n    \n    function gets(uint position) view public returns(uint){\n        return ids[position];\n    }\n    \n    function getAll() view public returns(uint[] memory){\n        return ids;\n    }\n    \n    function length() view public returns(uint){\n        return ids.length;\n    }\n}",
  "sourcePath": "/Users/anjani/Desktop/AdvStorage/contracts/AdvStorage.sol",
  "compiler": {
    "name": "solc",
    "version": "0.5.8+commit.23d335f2.Emscripten.clang"
  },
  "schemaVersion": "3.0.11",
  "updatedAt": "2020-07-24T21:55:31.875Z",
  "devdoc": {
    "methods": {}
  },
  "userdoc": {
    "methods": {}
  }
}